{
  "contractName": "DefiBank",
  "abi": [
    {
      "inputs": [],
      "stateMutability": "nonpayable",
      "type": "constructor"
    },
    {
      "inputs": [],
      "name": "InterestToken",
      "outputs": [
        {
          "internalType": "address",
          "name": "",
          "type": "address"
        }
      ],
      "stateMutability": "view",
      "type": "function"
    },
    {
      "inputs": [
        {
          "internalType": "address",
          "name": "",
          "type": "address"
        }
      ],
      "name": "hasStaked",
      "outputs": [
        {
          "internalType": "bool",
          "name": "",
          "type": "bool"
        }
      ],
      "stateMutability": "view",
      "type": "function"
    },
    {
      "inputs": [
        {
          "internalType": "address",
          "name": "",
          "type": "address"
        }
      ],
      "name": "isStaking",
      "outputs": [
        {
          "internalType": "bool",
          "name": "",
          "type": "bool"
        }
      ],
      "stateMutability": "view",
      "type": "function"
    },
    {
      "inputs": [],
      "name": "name",
      "outputs": [
        {
          "internalType": "string",
          "name": "",
          "type": "string"
        }
      ],
      "stateMutability": "view",
      "type": "function"
    },
    {
      "inputs": [
        {
          "internalType": "uint256",
          "name": "",
          "type": "uint256"
        }
      ],
      "name": "stakers",
      "outputs": [
        {
          "internalType": "address",
          "name": "",
          "type": "address"
        }
      ],
      "stateMutability": "view",
      "type": "function"
    },
    {
      "inputs": [
        {
          "internalType": "address",
          "name": "",
          "type": "address"
        }
      ],
      "name": "stakingBalance",
      "outputs": [
        {
          "internalType": "uint256",
          "name": "",
          "type": "uint256"
        }
      ],
      "stateMutability": "view",
      "type": "function"
    },
    {
      "inputs": [],
      "name": "usdc",
      "outputs": [
        {
          "internalType": "address",
          "name": "",
          "type": "address"
        }
      ],
      "stateMutability": "view",
      "type": "function"
    },
    {
      "inputs": [
        {
          "internalType": "uint256",
          "name": "_amount",
          "type": "uint256"
        }
      ],
      "name": "stakeTokens",
      "outputs": [],
      "stateMutability": "nonpayable",
      "type": "function"
    },
    {
      "inputs": [
        {
          "internalType": "uint256",
          "name": "_amount",
          "type": "uint256"
        }
      ],
      "name": "unstakeTokens",
      "outputs": [],
      "stateMutability": "nonpayable",
      "type": "function"
    },
    {
      "inputs": [],
      "name": "issueInterestToken",
      "outputs": [],
      "stateMutability": "nonpayable",
      "type": "function"
    }
  ],
  "bytecode": "0x60806040526040518060400160405280600981526020017f446566692042616e6b0000000000000000000000000000000000000000000000815250600090805190602001906200005192919062000110565b503480156200005f57600080fd5b5073a0b86991c6218b36c1d19d4a2e9eb0ce3606eb48600160006101000a81548173ffffffffffffffffffffffffffffffffffffffff021916908373ffffffffffffffffffffffffffffffffffffffff160217905550731f7f9d4edaa2c7024f3eb260662b1d25da5f80c5600260006101000a81548173ffffffffffffffffffffffffffffffffffffffff021916908373ffffffffffffffffffffffffffffffffffffffff16021790555062000225565b8280546200011e90620001c0565b90600052602060002090601f0160209004810192826200014257600085556200018e565b82601f106200015d57805160ff19168380011785556200018e565b828001600101855582156200018e579182015b828111156200018d57825182559160200191906001019062000170565b5b5090506200019d9190620001a1565b5090565b5b80821115620001bc576000816000905550600101620001a2565b5090565b60006002820490506001821680620001d957607f821691505b60208210811415620001f057620001ef620001f6565b5b50919050565b7f4e487b7100000000000000000000000000000000000000000000000000000000600052602260045260246000fd5b610dfe80620002356000396000f3fe608060405234801561001057600080fd5b506004361061009e5760003560e01c80636f49712b116100665780636f49712b146101495780637547c7a3146101795780638033bc1a14610195578063c93c8f341461019f578063fd5e6dd1146101cf5761009e565b806306fdde03146100a35780633e413bee146100c157806345bc78ab146100df5780635395cbd01461010f578063608e4dd01461012d575b600080fd5b6100ab6101ff565b6040516100b89190610b07565b60405180910390f35b6100c961028d565b6040516100d69190610a71565b60405180910390f35b6100f960048036038101906100f49190610984565b6102b3565b6040516101069190610b29565b60405180910390f35b6101176102cb565b6040516101249190610a71565b60405180910390f35b610147600480360381019061014291906109de565b6102f1565b005b610163600480360381019061015e9190610984565b6104ed565b6040516101709190610aec565b60405180910390f35b610193600480360381019061018e91906109de565b61050d565b005b61019d61077d565b005b6101b960048036038101906101b49190610984565b6108e6565b6040516101c69190610aec565b60405180910390f35b6101e960048036038101906101e491906109de565b610906565b6040516101f69190610a71565b60405180910390f35b6000805461020c90610c65565b80601f016020809104026020016040519081016040528092919081815260200182805461023890610c65565b80156102855780601f1061025a57610100808354040283529160200191610285565b820191906000526020600020905b81548152906001019060200180831161026857829003601f168201915b505050505081565b600160009054906101000a900473ffffffffffffffffffffffffffffffffffffffff1681565b60046020528060005260406000206000915090505481565b600260009054906101000a900473ffffffffffffffffffffffffffffffffffffffff1681565b6000600460003373ffffffffffffffffffffffffffffffffffffffff1673ffffffffffffffffffffffffffffffffffffffff1681526020019081526020016000205490508082111561034257600080fd5b600160009054906101000a900473ffffffffffffffffffffffffffffffffffffffff1673ffffffffffffffffffffffffffffffffffffffff1663a9059cbb33846040518363ffffffff1660e01b815260040161039f929190610ac3565b602060405180830381600087803b1580156103b957600080fd5b505af11580156103cd573d6000803e3d6000fd5b505050506040513d601f19601f820116820180604052508101906103f191906109b1565b5081600460003373ffffffffffffffffffffffffffffffffffffffff1673ffffffffffffffffffffffffffffffffffffffff16815260200190815260200160002060008282546104419190610bb6565b925050819055506000600460003373ffffffffffffffffffffffffffffffffffffffff1673ffffffffffffffffffffffffffffffffffffffff1681526020019081526020016000205414156104e9576000600660003373ffffffffffffffffffffffffffffffffffffffff1673ffffffffffffffffffffffffffffffffffffffff16815260200190815260200160002060006101000a81548160ff0219169083151502179055505b5050565b60066020528060005260406000206000915054906101000a900460ff1681565b600160009054906101000a900473ffffffffffffffffffffffffffffffffffffffff1673ffffffffffffffffffffffffffffffffffffffff166323b872dd3330846040518463ffffffff1660e01b815260040161056c93929190610a8c565b602060405180830381600087803b15801561058657600080fd5b505af115801561059a573d6000803e3d6000fd5b505050506040513d601f19601f820116820180604052508101906105be91906109b1565b5080600460003373ffffffffffffffffffffffffffffffffffffffff1673ffffffffffffffffffffffffffffffffffffffff168152602001908152602001600020600082825461060e9190610b60565b92505081905550600560003373ffffffffffffffffffffffffffffffffffffffff1673ffffffffffffffffffffffffffffffffffffffff16815260200190815260200160002060009054906101000a900460ff166106ca576003339080600181540180825580915050600190039060005260206000200160009091909190916101000a81548173ffffffffffffffffffffffffffffffffffffffff021916908373ffffffffffffffffffffffffffffffffffffffff1602179055505b6001600660003373ffffffffffffffffffffffffffffffffffffffff1673ffffffffffffffffffffffffffffffffffffffff16815260200190815260200160002060006101000a81548160ff0219169083151502179055506001600560003373ffffffffffffffffffffffffffffffffffffffff1673ffffffffffffffffffffffffffffffffffffffff16815260200190815260200160002060006101000a81548160ff02191690831515021790555050565b60005b6003805490508110156108e3576000600382815481106107a3576107a2610d3e565b5b9060005260206000200160009054906101000a900473ffffffffffffffffffffffffffffffffffffffff1690506000600460008373ffffffffffffffffffffffffffffffffffffffff1673ffffffffffffffffffffffffffffffffffffffff16815260200190815260200160002054905060008111156108ce57600260009054906101000a900473ffffffffffffffffffffffffffffffffffffffff1673ffffffffffffffffffffffffffffffffffffffff1663a9059cbb83836040518363ffffffff1660e01b815260040161087a929190610ac3565b602060405180830381600087803b15801561089457600080fd5b505af11580156108a8573d6000803e3d6000fd5b505050506040513d601f19601f820116820180604052508101906108cc91906109b1565b505b505080806108db90610c97565b915050610780565b50565b60056020528060005260406000206000915054906101000a900460ff1681565b6003818154811061091657600080fd5b906000526020600020016000915054906101000a900473ffffffffffffffffffffffffffffffffffffffff1681565b60008135905061095481610d83565b92915050565b60008151905061096981610d9a565b92915050565b60008135905061097e81610db1565b92915050565b60006020828403121561099a57610999610d6d565b5b60006109a884828501610945565b91505092915050565b6000602082840312156109c7576109c6610d6d565b5b60006109d58482850161095a565b91505092915050565b6000602082840312156109f4576109f3610d6d565b5b6000610a028482850161096f565b91505092915050565b610a1481610bea565b82525050565b610a2381610bfc565b82525050565b6000610a3482610b44565b610a3e8185610b4f565b9350610a4e818560208601610c32565b610a5781610d72565b840191505092915050565b610a6b81610c28565b82525050565b6000602082019050610a866000830184610a0b565b92915050565b6000606082019050610aa16000830186610a0b565b610aae6020830185610a0b565b610abb6040830184610a62565b949350505050565b6000604082019050610ad86000830185610a0b565b610ae56020830184610a62565b9392505050565b6000602082019050610b016000830184610a1a565b92915050565b60006020820190508181036000830152610b218184610a29565b905092915050565b6000602082019050610b3e6000830184610a62565b92915050565b600081519050919050565b600082825260208201905092915050565b6000610b6b82610c28565b9150610b7683610c28565b9250827fffffffffffffffffffffffffffffffffffffffffffffffffffffffffffffffff03821115610bab57610baa610ce0565b5b828201905092915050565b6000610bc182610c28565b9150610bcc83610c28565b925082821015610bdf57610bde610ce0565b5b828203905092915050565b6000610bf582610c08565b9050919050565b60008115159050919050565b600073ffffffffffffffffffffffffffffffffffffffff82169050919050565b6000819050919050565b60005b83811015610c50578082015181840152602081019050610c35565b83811115610c5f576000848401525b50505050565b60006002820490506001821680610c7d57607f821691505b60208210811415610c9157610c90610d0f565b5b50919050565b6000610ca282610c28565b91507fffffffffffffffffffffffffffffffffffffffffffffffffffffffffffffffff821415610cd557610cd4610ce0565b5b600182019050919050565b7f4e487b7100000000000000000000000000000000000000000000000000000000600052601160045260246000fd5b7f4e487b7100000000000000000000000000000000000000000000000000000000600052602260045260246000fd5b7f4e487b7100000000000000000000000000000000000000000000000000000000600052603260045260246000fd5b600080fd5b6000601f19601f8301169050919050565b610d8c81610bea565b8114610d9757600080fd5b50565b610da381610bfc565b8114610dae57600080fd5b50565b610dba81610c28565b8114610dc557600080fd5b5056fea2646970667358221220e48f3409a8275b240879a058aa2a62f167b5280ffe4b970ea176bb036057d66064736f6c63430008060033",
  "immutableReferences": {},
  "source": "pragma solidity 0.8.6;\n\ninterface IERC20 {\n    function totalSupply() external view returns (uint);\n    function balanceOf(address account) external view returns (uint);\n    function transfer(address recipient, uint amount) external returns (bool);\n    function allowance(address owner, address spender) external view returns (uint);\n    function approve(address spender, uint amount) external returns (bool);\n    function transferFrom(\n        address sender,\n        address recipient,\n        uint amount\n    ) external returns (bool);\n    event Transfer(address indexed from, address indexed to, uint value);\n    event Approval(address indexed owner, address indexed spender, uint value);\n}\n\n\n\ncontract DefiBank{\n    string public name = \"Defi Bank\";\n\n    address public usdc;\n    address public InterestToken;\n\n    address[] public stakers;\n    mapping(address => uint) public stakingBalance;\n    mapping(address => bool) public hasStaked;\n    mapping(address => bool) public isStaking;\n\n    constructor() public {\n        usdc = 0xA0b86991c6218b36c1d19D4a2e9Eb0cE3606eB48;\n        InterestToken = 0x1F7F9d4edaA2c7024f3EB260662B1D25Da5f80C5;\n    }\n\n    // Allowing the user to stake usdc tokens\n\n    function stakeTokens(uint _amount) public {\n        // Transfer usdc to this contract for staking\n        IERC20(usdc).transferFrom(msg.sender,address(this),_amount);\n\n        // Updating the staking balance\n        stakingBalance[msg.sender] += _amount;\n\n        // Add the user to stakers array if not added\n        if(!hasStaked[msg.sender]){\n            stakers.push(msg.sender);\n        }         \n        // update staking status\n        isStaking[msg.sender] = true;\n        hasStaked[msg.sender] = true;\n    }\n\n    // Allowing the user to unstake\n\n    function unstakeTokens(uint _amount) public {\n\n        // Get the balance of the user\n        uint balanceOfUser = stakingBalance[msg.sender];\n\n        // withdrawal amount should be less than or equal to staking balance\n        require(_amount<=balanceOfUser);\n\n        // transfer usdc tokens out of this contact to the person who wishes to withdraw\n        IERC20(usdc).transfer(msg.sender,_amount);\n\n        // updating\n\n        stakingBalance[msg.sender] -= _amount;\n        if(stakingBalance[msg.sender]==0){\n            isStaking[msg.sender] = false;\n        } \n    }\n\n    // Issue the \"Interest token\" (INT) as a reward for staking\n\n    function issueInterestToken() public {\n        for(uint i=0;i<stakers.length;i++){\n            address recipient = stakers[i];\n            uint balance  = stakingBalance[recipient];\n        \n            if(balance>0){\n                IERC20(InterestToken).transfer(recipient,balance);\n            }\n        }\n\n    }\n\n\n\n}",
  "sourcePath": "/home/adi/solidity/Defi-Bank/contracts/DefiBank.sol",
  "compiler": {
    "name": "solc",
    "version": "0.8.6+commit.11564f7e.Emscripten.clang"
  },
  "schemaVersion": "3.4.9",
  "updatedAt": "2022-08-20T07:33:42.202Z",
  "devdoc": {
    "kind": "dev",
    "methods": {},
    "version": 1
  },
  "userdoc": {
    "kind": "user",
    "methods": {},
    "version": 1
  }
}